:100000000C9462000C948A000C948A000C948A0070
:100010000C948A000C948A000C948A000C948A0038
:100020000C948A000C948A000C948A000C948A0028
:100030000C948A000C948A000C948A000C948A0018
:100040000C9417030C948A000C9487030C9461039E
:100050000C948A000C948A000C948A000C948A00F8
:100060000C948A000C948A000000000023002600F3
:10007000290000000000240027002A0000000000E2
:10008000250028002B0004040404040404040202D4
:100090000202020203030303030301020408102007
:1000A0004080010204081020010204081020000012
:1000B0000008000201000003040700000000000027
:1000C0000000FE0411241FBECFEFD8E0DEBFCDBF7D
:1000D00011E0A0E0B1E0E6E6FAE002C005900D9282
:1000E000A232B107D9F721E0A2E2B1E001C01D922E
:1000F000A83EB207E1F710E0C2E6D0E004C02197C5
:10010000FE010E942B05C136D107C9F70E94B90331
:100110000C9431050C940000833081F028F4813078
:1001200099F08230A9F008958730A9F08830C9F09D
:100130008430B1F4809180008F7D03C08091800075
:100140008F7780938000089584B58F7784BD08955C
:1001500084B58F7DFBCF8091B0008F778093B00006
:1001600008958091B0008F7DF9CF1F93CF93DF93D7
:10017000282F30E0F901E255FF4F8491F901E6564E
:10018000FF4FD491F901EA57FF4FC491CC23A9F056
:10019000162F81110E948C00EC2FF0E0EE0FFF1F54
:1001A000E458FF4FA591B4918FB7F894EC911111D9
:1001B00008C0D095DE23DC938FBFDF91CF911F91D4
:1001C0000895DE2BF8CFCF93DF9390E0FC01E65645
:1001D000FF4F24918A579F4FFC0184918823D1F0CF
:1001E00090E0880F991FFC01EE58FF4FA591B49144
:1001F000FC01E458FF4FC591D491623071F49FB770
:10020000F8943C91822F809583238C93E8812E2B48
:1002100028839FBFDF91CF9108958FB7F894EC9119
:100220002E2B2C938FBFF6CF1F93CF93DF93182FD6
:10023000EB0161E00E94E300209739F460E0812F38
:10024000DF91CF911F910C94B500CF3FD10511F4F0
:1002500061E0F5CFE12FF0E0E255FF4FE491E330AC
:1002600031F140F4E130B1F0E230E1F0C038D105D5
:100270007CF7E4CFE73029F1E83059F1E430B1F709
:1002800080918000806280938000D0938B00C09327
:100290008A0004C084B5806884BDC7BDDF91CF915A
:1002A0001F91089584B5806284BDC8BDF7CF809149
:1002B0008000806880938000D0938900C09388007C
:1002C000EDCF8091B00080688093B000C093B30000
:1002D000E5CF8091B00080628093B000C093B400FD
:1002E000DDCF3FB7F8948091E4019091E501A091B2
:1002F000E601B091E70126B5A89B05C02F3F19F094
:100300000196A11DB11D3FBFBA2FA92F982F882795
:10031000BC01CD01620F711D811D911D42E0660F70
:10032000771F881F991F4A95D1F70895AF92BF9202
:10033000CF92DF92EF92FF920F931F93CF93DF93B1
:100340006C017B018B01040F151FEB015E01AE18E0
:10035000BF08C017D10759F06991D601ED91FC9102
:100360000190F081E02DC6010995892B79F7C5012F
:10037000DF91CF911F910F91FF90EF90DF90CF9081
:10038000BF90AF900895FC01538D448D252F30E030
:10039000842F90E0821B930B541710F0CF96089592
:1003A00001970895FC01918D828D981761F0A28DBF
:1003B000AE0FBF2FB11D5D968C91928D9F5F9F7385
:1003C000928F90E008958FEF9FEF0895FC01918D3B
:1003D000828D981731F0828DE80FF11D858D90E0A8
:1003E00008958FEF9FEF0895FC01918D228D892F45
:1003F00090E0805C9F4F821B91098F73992708952D
:1004000082E291E00E94F40121E0892B09F420E0CE
:10041000822F089580E090E0892B29F00E9400024D
:1004200081110C9400000895FC01A48DA80FB92F30
:10043000B11DA35ABF4F2C91848D90E001968F730C
:100440009927848FA689B7892C93A089B1898C912B
:10045000837080648C93938D848D981306C002887A
:10046000F389E02D80818F7D80830895EF92FF9244
:100470000F931F93CF93DF93EC0181E0888F9B8DC7
:100480008C8D98131AC0E889F989808185FF15C081
:100490009FB7F894EE89FF896083E889F9898081A4
:1004A0008370806480839FBF81E090E0DF91CF9173
:1004B0001F910F91FF90EF900895F62E0B8D10E095
:1004C0000F5F1F4F0F731127E02E8C8D8E110CC004
:1004D0000FB607FCFACFE889F989808185FFF5CF4F
:1004E000CE010E941402F1CFEB8DEC0FFD2FF11D18
:1004F000E35AFF4FF0829FB7F8940B8FEA89FB898C
:1005000080818062CFCFCF93DF93EC01888D8823E9
:10051000B9F0AA89BB89E889F9898C9185FD03C066
:10052000808186FD0DC00FB607FCF7CF8C9185FF4B
:10053000F2CF808185FFEDCFCE010E941402E9CF7A
:10054000DF91CF9108954F925F926F927F928F9239
:100550009F92AF92BF92CF92DF92EF92FF921F9342
:10056000CF93DF93182F6B0182EF810F1E3008F4B9
:10057000812F8770806480937C0080917A008064F2
:1005800080937A0080917A0086FDFCCF809178007C
:1005900090917900CFEFD0E02BEFE22EFF24FA9478
:1005A000C114D10429F0D0E0C0E095E0E92EF12C8F
:1005B000BE01812FCC15DD0549F10E9414010E9476
:1005C00071012B013C018AE0882E912CA12CB12CC9
:1005D0000E9471016419750986099709683E734084
:1005E00081059105A8F321E0821A9108A108B108BC
:1005F00088EE480E83E0581E611C711C8114910422
:10060000A104B10429F7CE0DDF1DD2CFDF91CF9128
:100610001F91FF90EF90DF90CF90BF90AF909F9091
:100620008F907F906F905F904F900C9414011F9269
:100630000F920FB60F9211242F933F938F939F9396
:10064000AF93BF938091E0019091E101A091E2010D
:10065000B091E3013091DF0123E0230F2D3758F5EE
:100660000196A11DB11D2093DF018093E0019093BD
:10067000E101A093E201B093E3018091E401909144
:10068000E501A091E601B091E7010196A11DB11D20
:100690008093E4019093E501A093E601B093E70114
:1006A000BF91AF919F918F913F912F910F900FBE6E
:1006B0000F901F90189526E8230F0296A11DB11DDB
:1006C000D2CF1F920F920FB60F9211242F933F9308
:1006D0004F935F936F937F938F939F93AF93BF934A
:1006E000EF93FF9382E291E00E941402FF91EF9159
:1006F000BF91AF919F918F917F916F915F914F913A
:100700003F912F910F900FBE0F901F9018951F9241
:100710000F920FB60F9211242F938F939F93EF9305
:10072000FF93E0913201F09133018081E091380133
:10073000F091390182FD1BC0908180913B018F5F58
:100740008F7320913C01821741F0E0913B01F0E072
:10075000EE5DFE4F958F80933B01FF91EF919F914E
:100760008F912F910F900FBE0F901F901895808141
:10077000F4CF789484B5826084BD84B5816084BDF3
:1007800085B5826085BD85B5816085BD80916E002F
:10079000816080936E001092810080918100826060
:1007A000809381008091810081608093810080919D
:1007B00080008160809380008091B100846080938C
:1007C000B1008091B00081608093B00080917A0088
:1007D000846080937A0080917A00826080937A00AE
:1007E00080917A00816080937A0080917A0080689D
:1007F00080937A001092C10002E111E067ECE62ECE
:1008000061E0F62E7FEBC72E71E0D72EE7ED8E2E3E
:10081000E1E09E2ECAE1D1E0AA24A394B12C888104
:10082000229662E00E94E300F80170800E5F1F4F85
:1008300061E0872D0E94E3006FEF70E0872D0E943A
:100840001401F401A192B1924F01F601A192B1926B
:100850006F01F70111921192119211927F01F1E053
:10086000C232DF07E1F6E0913201F091330182E01C
:100870008083E0912E01F0912F011082E0913001F0
:10088000F091310180E1808310923A01E0913601CC
:10089000F091370186E08083E0913401F0913501D9
:1008A000808180618083E0913401F0913501808105
:1008B00088608083E0913401F09135018081806807
:1008C0008083E0913401F091350180818F7D8083B8
:1008D00050E0252E50E0352E8FB7F8948090E0013F
:1008E0009090E101A090E201B090E3018FBF97ECFE
:1008F000C92E91E0D92E2FEBE22E21E0F22E37ED1A
:10090000632E31E0732E4AE1442E41E0542E10E074
:1009100000E0F201219131912F013327F901E255D5
:10092000FF4F8491F901E656FF4FC491F901EA5750
:10093000FF4FD491DD2309F45EC081110E948C0029
:10094000ED2FF0E0EE0FFF1FE859FF4FA591B49196
:10095000EC91CE2391E080E009F490E0C92FD82FEC
:10096000F301808191818C179D0729F0F601808227
:100970009182A282B382F60181919191A191B1916C
:100980006F01A5019401281B390B4A0B5B0BDA019F
:10099000C901C397A105B105A8F0F7018081918134
:1009A0008C179D0779F0D183C083F801EE5EFE4F6E
:1009B0008081918170E060E0209711F06FEF70E02E
:1009C0000E94A302F301C193D1933F01F2E0EF0E25
:1009D000F11C0E5F1F4F0830110509F09ACF21144A
:1009E000310409F479CF0E940002882309F474CFFE
:1009F0000E94000071CFD0E0C0E0B2CFE2E2F1E0AF
:100A00001382128288EE93E0A0E0B0E084839583A5
:100A1000A683B78384E091E09183808385EC90E0A6
:100A20009587848784EC90E09787868780EC90E0B8
:100A3000918B808B81EC90E0938B828B82EC90E0A9
:100A4000958B848B86EC90E0978B868B118E128E23
:100A5000138E148E0895EE0FFF1F0590F491E02D74
:060A60000994F894FFCF99
:100A66000000000036029601C3018302F401D201A0
:100A7600E6010300050006000A0002000400080063
:020A8600090065
:00000001FF
